{
  "transactions": [
    {
      "hash": "0x8890bacbdbe3b52b2acfa2f9507ff6092d240f4ec8676e5005eb5688265bd94b",
      "transactionType": "CALL",
      "contractName": null,
      "contractAddress": "0x6d4b1af928cbe669659521b5dea37961b37acce9",
      "function": "mint(address,uint256)",
      "arguments": [
        "0x4634c66F69145DF7491BfbAfb4D2E716330fA837",
        "1000000000000000000"
      ],
      "transaction": {
        "from": "0x4634c66f69145df7491bfbafb4d2e716330fa837",
        "to": "0x6d4b1af928cbe669659521b5dea37961b37acce9",
        "gas": "0x11475",
        "value": "0x0",
        "input": "0x40c10f190000000000000000000000004634c66f69145df7491bfbafb4d2e716330fa8370000000000000000000000000000000000000000000000000de0b6b3a7640000",
        "nonce": "0xd",
        "chainId": "0x85"
      },
      "additionalContracts": [],
      "isFixedGasLimit": false
    },
    {
      "hash": "0x58429718e61a8a50f3d89d74f2b6b6dd6fb5264e701bc9c7dc482f8ccbfdcb1b",
      "transactionType": "CALL",
      "contractName": null,
      "contractAddress": "0xafc441e6baf4518f38159aecbd0eed6edd083198",
      "function": "mint(address,uint256)",
      "arguments": [
        "0x4634c66F69145DF7491BfbAfb4D2E716330fA837",
        "1000000000000"
      ],
      "transaction": {
        "from": "0x4634c66f69145df7491bfbafb4d2e716330fa837",
        "to": "0xafc441e6baf4518f38159aecbd0eed6edd083198",
        "gas": "0xc2e4",
        "value": "0x0",
        "input": "0x40c10f190000000000000000000000004634c66f69145df7491bfbafb4d2e716330fa837000000000000000000000000000000000000000000000000000000e8d4a51000",
        "nonce": "0xe",
        "chainId": "0x85"
      },
      "additionalContracts": [],
      "isFixedGasLimit": false
    },
    {
      "hash": "0x4ab459018cb6eacb5ec43b170a7163c5506d7ab9171ff47c756ea3082af93886",
      "transactionType": "CALL",
      "contractName": null,
      "contractAddress": "0x6d4b1af928cbe669659521b5dea37961b37acce9",
      "function": "approve(address,uint256)",
      "arguments": [
        "0x15dd37d92eD9526300FE5de5aB555AeA6C621f22",
        "1000000000000000000"
      ],
      "transaction": {
        "from": "0x4634c66f69145df7491bfbafb4d2e716330fa837",
        "to": "0x6d4b1af928cbe669659521b5dea37961b37acce9",
        "gas": "0x1079e",
        "value": "0x0",
        "input": "0x095ea7b300000000000000000000000015dd37d92ed9526300fe5de5ab555aea6c621f220000000000000000000000000000000000000000000000000de0b6b3a7640000",
        "nonce": "0xf",
        "chainId": "0x85"
      },
      "additionalContracts": [],
      "isFixedGasLimit": false
    },
    {
      "hash": "0x4365a23dc70b8e9bd6489bfec44fd13ffaa2cd4826e848c4d9d64f0e78950321",
      "transactionType": "CALL",
      "contractName": null,
      "contractAddress": "0x15dd37d92ed9526300fe5de5ab555aea6c621f22",
      "function": "createAuction(address,uint256,address,uint256,uint64,uint64)",
      "arguments": [
        "0x6d4b1af928CBE669659521B5DEA37961B37ACCe9",
        "1000000000000000000",
        "0xAfc441e6baf4518f38159AecBd0Eed6EDd083198",
        "1000",
        "21600",
        "21600"
      ],
      "transaction": {
        "from": "0x4634c66f69145df7491bfbafb4d2e716330fa837",
        "to": "0x15dd37d92ed9526300fe5de5ab555aea6c621f22",
        "gas": "0x40cea",
        "value": "0x0",
        "input": "0xc3487f850000000000000000000000006d4b1af928cbe669659521b5dea37961b37acce90000000000000000000000000000000000000000000000000de0b6b3a7640000000000000000000000000000afc441e6baf4518f38159aecbd0eed6edd08319800000000000000000000000000000000000000000000000000000000000003e800000000000000000000000000000000000000000000000000000000000054600000000000000000000000000000000000000000000000000000000000005460",
        "nonce": "0x10",
        "chainId": "0x85"
      },
      "additionalContracts": [],
      "isFixedGasLimit": false
    }
  ],
  "receipts": [
    {
      "status": "0x1",
      "cumulativeGasUsed": "0x2ce9a",
      "logs": [
        {
          "address": "0x6d4b1af928cbe669659521b5dea37961b37acce9",
          "topics": [
            "0xddf252ad1be2c89b69c2b068fc378daa952ba7f163c4a11628f55a4df523b3ef",
            "0x0000000000000000000000000000000000000000000000000000000000000000",
            "0x0000000000000000000000004634c66f69145df7491bfbafb4d2e716330fa837"
          ],
          "data": "0x0000000000000000000000000000000000000000000000000de0b6b3a7640000",
          "blockHash": "0x2c093f5dd275f0e490d905b85208c44b01e175e3e477a21463ba41b0ea30fe21",
          "blockNumber": "0x193c9af",
          "blockTimestamp": "0x69dd513e",
          "transactionHash": "0x8890bacbdbe3b52b2acfa2f9507ff6092d240f4ec8676e5005eb5688265bd94b",
          "transactionIndex": "0x2",
          "logIndex": "0x3",
          "removed": false
        }
      ],
      "logsBloom": "0x0000000000000000000000000000000000000000000000000000000000000000000000000000000000000000000002000000000000000000000000000000000000000000000000000000000800000000000000000000000000000000000000000000000002000000000000000000080000000000000000000000001000000000000000000000000000040000000000000000000000010000000000000000000000000000000000000000000000000000000000000000000000000000000000000000000200000000000000000008000000000000000000000000000000002000000000000000000000000000a000000000000000000000000000000000000000",
      "type": "0x2",
      "transactionHash": "0x8890bacbdbe3b52b2acfa2f9507ff6092d240f4ec8676e5005eb5688265bd94b",
      "transactionIndex": "0x2",
      "blockHash": "0x2c093f5dd275f0e490d905b85208c44b01e175e3e477a21463ba41b0ea30fe21",
      "blockNumber": "0x193c9af",
      "gasUsed": "0xc827",
      "effectiveGasPrice": "0xfe",
      "from": "0x4634c66f69145df7491bfbafb4d2e716330fa837",
      "to": "0x6d4b1af928cbe669659521b5dea37961b37acce9",
      "contractAddress": null,
      "l1BaseFeeScalar": "0x2710",
      "l1BlobBaseFee": "0x18231",
      "l1BlobBaseFeeScalar": "0x2710",
      "l1Fee": "0x1939431",
      "l1GasPrice": "0x192120",
      "l1GasUsed": "0x640"
    },
    {
      "status": "0x1",
      "cumulativeGasUsed": "0x353dd",
      "logs": [
        {
          "address": "0xafc441e6baf4518f38159aecbd0eed6edd083198",
          "topics": [
            "0xddf252ad1be2c89b69c2b068fc378daa952ba7f163c4a11628f55a4df523b3ef",
            "0x0000000000000000000000000000000000000000000000000000000000000000",
            "0x0000000000000000000000004634c66f69145df7491bfbafb4d2e716330fa837"
          ],
          "data": "0x000000000000000000000000000000000000000000000000000000e8d4a51000",
          "blockHash": "0x2c093f5dd275f0e490d905b85208c44b01e175e3e477a21463ba41b0ea30fe21",
          "blockNumber": "0x193c9af",
          "blockTimestamp": "0x69dd513e",
          "transactionHash": "0x58429718e61a8a50f3d89d74f2b6b6dd6fb5264e701bc9c7dc482f8ccbfdcb1b",
          "transactionIndex": "0x3",
          "logIndex": "0x4",
          "removed": false
        }
      ],
      "logsBloom": "0x00000000000000010000000000000000000000000000000000000000000000000000000000000000000000000000000000000000000000000000000000000000000000000000000000000008000000000000000000000000000000000000000000000000020000000000000000000800000000000000000000000010000000000000000000000000000400000000000000000000000100000000000000000000000000000000000000000000000000000000000000000000000000000000000000000002000000000000000000000000000000001000000000000000000020000000000000000000000000008000000000000000000000000004000000000000",
      "type": "0x2",
      "transactionHash": "0x58429718e61a8a50f3d89d74f2b6b6dd6fb5264e701bc9c7dc482f8ccbfdcb1b",
      "transactionIndex": "0x3",
      "blockHash": "0x2c093f5dd275f0e490d905b85208c44b01e175e3e477a21463ba41b0ea30fe21",
      "blockNumber": "0x193c9af",
      "gasUsed": "0x8543",
      "effectiveGasPrice": "0xfe",
      "from": "0x4634c66f69145df7491bfbafb4d2e716330fa837",
      "to": "0xafc441e6baf4518f38159aecbd0eed6edd083198",
      "contractAddress": null,
      "l1BaseFeeScalar": "0x2710",
      "l1BlobBaseFee": "0x18231",
      "l1BlobBaseFeeScalar": "0x2710",
      "l1Fee": "0x1939431",
      "l1GasPrice": "0x192120",
      "l1GasUsed": "0x640"
    },
    {
      "status": "0x1",
      "cumulativeGasUsed": "0x4081e",
      "logs": [
        {
          "address": "0x6d4b1af928cbe669659521b5dea37961b37acce9",
          "topics": [
            "0x8c5be1e5ebec7d5bd14f71427d1e84f3dd0314c0f7b2291e5b200ac8c7c3b925",
            "0x0000000000000000000000004634c66f69145df7491bfbafb4d2e716330fa837",
            "0x00000000000000000000000015dd37d92ed9526300fe5de5ab555aea6c621f22"
          ],
          "data": "0x0000000000000000000000000000000000000000000000000de0b6b3a7640000",
          "blockHash": "0x2c093f5dd275f0e490d905b85208c44b01e175e3e477a21463ba41b0ea30fe21",
          "blockNumber": "0x193c9af",
          "blockTimestamp": "0x69dd513e",
          "transactionHash": "0x4ab459018cb6eacb5ec43b170a7163c5506d7ab9171ff47c756ea3082af93886",
          "transactionIndex": "0x4",
          "logIndex": "0x5",
          "removed": false
        }
      ],
      "logsBloom": "0x0000000000000000000000000000000000000000000000000000000000000000000000000000000000000000000002000000000000000000000000000020000000000000000000000000000000000000000000000000000000000000000000000000000020000000000000000000000000000040000000000000000000000000000000000000000000040000000000000000000000010000000000000000000002000000000000000000000000000000000000000000000000000000000000000000000000000000000000000008000000000000000000000000000000000000001000000000000000000000a000000000000000000000000000200000000000",
      "type": "0x2",
      "transactionHash": "0x4ab459018cb6eacb5ec43b170a7163c5506d7ab9171ff47c756ea3082af93886",
      "transactionIndex": "0x4",
      "blockHash": "0x2c093f5dd275f0e490d905b85208c44b01e175e3e477a21463ba41b0ea30fe21",
      "blockNumber": "0x193c9af",
      "gasUsed": "0xb441",
      "effectiveGasPrice": "0xfe",
      "from": "0x4634c66f69145df7491bfbafb4d2e716330fa837",
      "to": "0x6d4b1af928cbe669659521b5dea37961b37acce9",
      "contractAddress": null,
      "l1BaseFeeScalar": "0x2710",
      "l1BlobBaseFee": "0x18231",
      "l1BlobBaseFeeScalar": "0x2710",
      "l1Fee": "0x1939431",
      "l1GasPrice": "0x192120",
      "l1GasUsed": "0x640"
    },
    {
      "status": "0x1",
      "cumulativeGasUsed": "0x6cd1f",
      "logs": [
        {
          "address": "0x6d4b1af928cbe669659521b5dea37961b37acce9",
          "topics": [
            "0xddf252ad1be2c89b69c2b068fc378daa952ba7f163c4a11628f55a4df523b3ef",
            "0x0000000000000000000000004634c66f69145df7491bfbafb4d2e716330fa837",
            "0x00000000000000000000000015dd37d92ed9526300fe5de5ab555aea6c621f22"
          ],
          "data": "0x0000000000000000000000000000000000000000000000000de0b6b3a7640000",
          "blockHash": "0x2c093f5dd275f0e490d905b85208c44b01e175e3e477a21463ba41b0ea30fe21",
          "blockNumber": "0x193c9af",
          "blockTimestamp": "0x69dd513e",
          "transactionHash": "0x4365a23dc70b8e9bd6489bfec44fd13ffaa2cd4826e848c4d9d64f0e78950321",
          "transactionIndex": "0x5",
          "logIndex": "0x6",
          "removed": false
        },
        {
          "address": "0x15dd37d92ed9526300fe5de5ab555aea6c621f22",
          "topics": [
            "0x8d5b2c02bddff46404253486fb75e66ca74b220e9c3ea8c1ba8bde473b055698",
            "0x0000000000000000000000000000000000000000000000000000000000000002",
            "0x0000000000000000000000004634c66f69145df7491bfbafb4d2e716330fa837",
            "0x0000000000000000000000006d4b1af928cbe669659521b5dea37961b37acce9"
          ],
          "data": "0x0000000000000000000000000000000000000000000000000de0b6b3a7640000000000000000000000000000afc441e6baf4518f38159aecbd0eed6edd08319800000000000000000000000000000000000000000000000000000000000003e80000000000000000000000000000000000000000000000000000000069dda59e0000000000000000000000000000000000000000000000000000000069ddf9fe",
          "blockHash": "0x2c093f5dd275f0e490d905b85208c44b01e175e3e477a21463ba41b0ea30fe21",
          "blockNumber": "0x193c9af",
          "blockTimestamp": "0x69dd513e",
          "transactionHash": "0x4365a23dc70b8e9bd6489bfec44fd13ffaa2cd4826e848c4d9d64f0e78950321",
          "transactionIndex": "0x5",
          "logIndex": "0x7",
          "removed": false
        }
      ],
      "logsBloom": "0x0400000000000000000000000000000000000000008000000000000000000000000000080000000000000000000002000000000000000000000000000000000100000000000000000000000800000000000000000000002000000000000002000000000020004000000000000000000000000040000000000000001000000000000000000000000000040000000000000004000000010000000000000000000000000000000000000000010000000000000000000000000000002000000000000000000200000001000000000008000000000000000000000000000000000000000000000000000000000000a000000000000000008000000000200000000000",
      "type": "0x2",
      "transactionHash": "0x4365a23dc70b8e9bd6489bfec44fd13ffaa2cd4826e848c4d9d64f0e78950321",
      "transactionIndex": "0x5",
      "blockHash": "0x2c093f5dd275f0e490d905b85208c44b01e175e3e477a21463ba41b0ea30fe21",
      "blockNumber": "0x193c9af",
      "gasUsed": "0x2c501",
      "effectiveGasPrice": "0xfe",
      "from": "0x4634c66f69145df7491bfbafb4d2e716330fa837",
      "to": "0x15dd37d92ed9526300fe5de5ab555aea6c621f22",
      "contractAddress": null,
      "l1BaseFeeScalar": "0x2710",
      "l1BlobBaseFee": "0x18231",
      "l1BlobBaseFeeScalar": "0x2710",
      "l1Fee": "0x1fe12a5",
      "l1GasPrice": "0x192120",
      "l1GasUsed": "0x7e6"
    }
  ],
  "libraries": [],
  "pending": [],
  "returns": {},
  "timestamp": 1776111935495,
  "chain": 133,
  "commit": "8782390"
}