{
  "transactions": [
    {
      "hash": "0x1ecd79c8209f71fc7092a7779990feb074297d3d389a871e871616c4841170f4",
      "transactionType": "CALL",
      "contractName": null,
      "contractAddress": "0x6d4b1af928cbe669659521b5dea37961b37acce9",
      "function": "mint(address,uint256)",
      "arguments": [
        "0x4634c66F69145DF7491BfbAfb4D2E716330fA837",
        "1000000000000000000"
      ],
      "transaction": {
        "from": "0x4634c66f69145df7491bfbafb4d2e716330fa837",
        "to": "0x6d4b1af928cbe669659521b5dea37961b37acce9",
        "gas": "0x18669",
        "value": "0x0",
        "input": "0x40c10f190000000000000000000000004634c66f69145df7491bfbafb4d2e716330fa8370000000000000000000000000000000000000000000000000de0b6b3a7640000",
        "nonce": "0x7",
        "chainId": "0x85"
      },
      "additionalContracts": [],
      "isFixedGasLimit": false
    },
    {
      "hash": "0x9569600216a740d202546f1007878f9b6b4cdd63473fe8c1dd1ecf09a05df074",
      "transactionType": "CALL",
      "contractName": null,
      "contractAddress": "0xafc441e6baf4518f38159aecbd0eed6edd083198",
      "function": "mint(address,uint256)",
      "arguments": [
        "0x4634c66F69145DF7491BfbAfb4D2E716330fA837",
        "1000000000000"
      ],
      "transaction": {
        "from": "0x4634c66f69145df7491bfbafb4d2e716330fa837",
        "to": "0xafc441e6baf4518f38159aecbd0eed6edd083198",
        "gas": "0x18646",
        "value": "0x0",
        "input": "0x40c10f190000000000000000000000004634c66f69145df7491bfbafb4d2e716330fa837000000000000000000000000000000000000000000000000000000e8d4a51000",
        "nonce": "0x8",
        "chainId": "0x85"
      },
      "additionalContracts": [],
      "isFixedGasLimit": false
    },
    {
      "hash": "0x362c3e62410b0a7eabb9da453fb2f61b47c863972d3011eaca3d33aba5be49e6",
      "transactionType": "CALL",
      "contractName": null,
      "contractAddress": "0x6d4b1af928cbe669659521b5dea37961b37acce9",
      "function": "approve(address,uint256)",
      "arguments": [
        "0x15dd37d92eD9526300FE5de5aB555AeA6C621f22",
        "1000000000000000000"
      ],
      "transaction": {
        "from": "0x4634c66f69145df7491bfbafb4d2e716330fa837",
        "to": "0x6d4b1af928cbe669659521b5dea37961b37acce9",
        "gas": "0x1079e",
        "value": "0x0",
        "input": "0x095ea7b300000000000000000000000015dd37d92ed9526300fe5de5ab555aea6c621f220000000000000000000000000000000000000000000000000de0b6b3a7640000",
        "nonce": "0x9",
        "chainId": "0x85"
      },
      "additionalContracts": [],
      "isFixedGasLimit": false
    },
    {
      "hash": "0x69b850a8b0afe1cb0872897424d7c6bdee0e0fe67ccc4f8cbbdcb999b7c315f4",
      "transactionType": "CALL",
      "contractName": null,
      "contractAddress": "0x15dd37d92ed9526300fe5de5ab555aea6c621f22",
      "function": "createAuction(address,uint256,address,uint256,uint64,uint64)",
      "arguments": [
        "0x6d4b1af928CBE669659521B5DEA37961B37ACCe9",
        "1000000000000000000",
        "0xAfc441e6baf4518f38159AecBd0Eed6EDd083198",
        "1000",
        "3600",
        "3600"
      ],
      "transaction": {
        "from": "0x4634c66f69145df7491bfbafb4d2e716330fa837",
        "to": "0x15dd37d92ed9526300fe5de5ab555aea6c621f22",
        "gas": "0x4d04c",
        "value": "0x0",
        "input": "0xc3487f850000000000000000000000006d4b1af928cbe669659521b5dea37961b37acce90000000000000000000000000000000000000000000000000de0b6b3a7640000000000000000000000000000afc441e6baf4518f38159aecbd0eed6edd08319800000000000000000000000000000000000000000000000000000000000003e80000000000000000000000000000000000000000000000000000000000000e100000000000000000000000000000000000000000000000000000000000000e10",
        "nonce": "0xa",
        "chainId": "0x85"
      },
      "additionalContracts": [],
      "isFixedGasLimit": false
    }
  ],
  "receipts": [
    {
      "status": "0x1",
      "cumulativeGasUsed": "0x1e1f5",
      "logs": [
        {
          "address": "0x6d4b1af928cbe669659521b5dea37961b37acce9",
          "topics": [
            "0xddf252ad1be2c89b69c2b068fc378daa952ba7f163c4a11628f55a4df523b3ef",
            "0x0000000000000000000000000000000000000000000000000000000000000000",
            "0x0000000000000000000000004634c66f69145df7491bfbafb4d2e716330fa837"
          ],
          "data": "0x0000000000000000000000000000000000000000000000000de0b6b3a7640000",
          "blockHash": "0xb41524999b4fd4c83ff4dfa4ee95767aee885f04faae1a5e3d0ee9bc32c06fb8",
          "blockNumber": "0x193c35c",
          "blockTimestamp": "0x69dd4498",
          "transactionHash": "0x69b850a8b0afe1cb0872897424d7c6bdee0e0fe67ccc4f8cbbdcb999b7c315f4",
          "transactionIndex": "0x1",
          "logIndex": "0x0",
          "removed": false
        }
      ],
      "logsBloom": "0x0000000000000000000000000000000000000000000000000000000000000000000000000000000000000000000002000000000000000000000000000000000000000000000000000000000800000000000000000000000000000000000000000000000002000000000000000000080000000000000000000000001000000000000000000000000000040000000000000000000000010000000000000000000000000000000000000000000000000000000000000000000000000000000000000000000200000000000000000008000000000000000000000000000000002000000000000000000000000000a000000000000000000000000000000000000000",
      "type": "0x2",
      "transactionHash": "0x69b850a8b0afe1cb0872897424d7c6bdee0e0fe67ccc4f8cbbdcb999b7c315f4",
      "transactionIndex": "0x1",
      "blockHash": "0xb41524999b4fd4c83ff4dfa4ee95767aee885f04faae1a5e3d0ee9bc32c06fb8",
      "blockNumber": "0x193c35c",
      "gasUsed": "0x10af3",
      "effectiveGasPrice": "0xfe",
      "from": "0x4634c66f69145df7491bfbafb4d2e716330fa837",
      "to": "0x6d4b1af928cbe669659521b5dea37961b37acce9",
      "contractAddress": null,
      "l1BaseFeeScalar": "0x2710",
      "l1BlobBaseFee": "0x1d89a",
      "l1BlobBaseFeeScalar": "0x2710",
      "l1Fee": "0x21b4e0a",
      "l1GasPrice": "0x219757",
      "l1GasUsed": "0x640"
    },
    {
      "status": "0x1",
      "cumulativeGasUsed": "0x2ecd0",
      "logs": [
        {
          "address": "0xafc441e6baf4518f38159aecbd0eed6edd083198",
          "topics": [
            "0xddf252ad1be2c89b69c2b068fc378daa952ba7f163c4a11628f55a4df523b3ef",
            "0x0000000000000000000000000000000000000000000000000000000000000000",
            "0x0000000000000000000000004634c66f69145df7491bfbafb4d2e716330fa837"
          ],
          "data": "0x000000000000000000000000000000000000000000000000000000e8d4a51000",
          "blockHash": "0xb41524999b4fd4c83ff4dfa4ee95767aee885f04faae1a5e3d0ee9bc32c06fb8",
          "blockNumber": "0x193c35c",
          "blockTimestamp": "0x69dd4498",
          "transactionHash": "0x1ecd79c8209f71fc7092a7779990feb074297d3d389a871e871616c4841170f4",
          "transactionIndex": "0x2",
          "logIndex": "0x1",
          "removed": false
        }
      ],
      "logsBloom": "0x00000000000000010000000000000000000000000000000000000000000000000000000000000000000000000000000000000000000000000000000000000000000000000000000000000008000000000000000000000000000000000000000000000000020000000000000000000800000000000000000000000010000000000000000000000000000400000000000000000000000100000000000000000000000000000000000000000000000000000000000000000000000000000000000000000002000000000000000000000000000000001000000000000000000020000000000000000000000000008000000000000000000000000004000000000000",
      "type": "0x2",
      "transactionHash": "0x1ecd79c8209f71fc7092a7779990feb074297d3d389a871e871616c4841170f4",
      "transactionIndex": "0x2",
      "blockHash": "0xb41524999b4fd4c83ff4dfa4ee95767aee885f04faae1a5e3d0ee9bc32c06fb8",
      "blockNumber": "0x193c35c",
      "gasUsed": "0x10adb",
      "effectiveGasPrice": "0xfe",
      "from": "0x4634c66f69145df7491bfbafb4d2e716330fa837",
      "to": "0xafc441e6baf4518f38159aecbd0eed6edd083198",
      "contractAddress": null,
      "l1BaseFeeScalar": "0x2710",
      "l1BlobBaseFee": "0x1d89a",
      "l1BlobBaseFeeScalar": "0x2710",
      "l1Fee": "0x21b4e0a",
      "l1GasPrice": "0x219757",
      "l1GasUsed": "0x640"
    },
    {
      "status": "0x1",
      "cumulativeGasUsed": "0x3a111",
      "logs": [
        {
          "address": "0x6d4b1af928cbe669659521b5dea37961b37acce9",
          "topics": [
            "0x8c5be1e5ebec7d5bd14f71427d1e84f3dd0314c0f7b2291e5b200ac8c7c3b925",
            "0x0000000000000000000000004634c66f69145df7491bfbafb4d2e716330fa837",
            "0x00000000000000000000000015dd37d92ed9526300fe5de5ab555aea6c621f22"
          ],
          "data": "0x0000000000000000000000000000000000000000000000000de0b6b3a7640000",
          "blockHash": "0xb41524999b4fd4c83ff4dfa4ee95767aee885f04faae1a5e3d0ee9bc32c06fb8",
          "blockNumber": "0x193c35c",
          "blockTimestamp": "0x69dd4498",
          "transactionHash": "0x362c3e62410b0a7eabb9da453fb2f61b47c863972d3011eaca3d33aba5be49e6",
          "transactionIndex": "0x3",
          "logIndex": "0x2",
          "removed": false
        }
      ],
      "logsBloom": "0x0000000000000000000000000000000000000000000000000000000000000000000000000000000000000000000002000000000000000000000000000020000000000000000000000000000000000000000000000000000000000000000000000000000020000000000000000000000000000040000000000000000000000000000000000000000000040000000000000000000000010000000000000000000002000000000000000000000000000000000000000000000000000000000000000000000000000000000000000008000000000000000000000000000000000000001000000000000000000000a000000000000000000000000000200000000000",
      "type": "0x2",
      "transactionHash": "0x362c3e62410b0a7eabb9da453fb2f61b47c863972d3011eaca3d33aba5be49e6",
      "transactionIndex": "0x3",
      "blockHash": "0xb41524999b4fd4c83ff4dfa4ee95767aee885f04faae1a5e3d0ee9bc32c06fb8",
      "blockNumber": "0x193c35c",
      "gasUsed": "0xb441",
      "effectiveGasPrice": "0xfe",
      "from": "0x4634c66f69145df7491bfbafb4d2e716330fa837",
      "to": "0x6d4b1af928cbe669659521b5dea37961b37acce9",
      "contractAddress": null,
      "l1BaseFeeScalar": "0x2710",
      "l1BlobBaseFee": "0x1d89a",
      "l1BlobBaseFeeScalar": "0x2710",
      "l1Fee": "0x21b4e0a",
      "l1GasPrice": "0x219757",
      "l1GasUsed": "0x640"
    },
    {
      "status": "0x1",
      "cumulativeGasUsed": "0x6ebaa",
      "logs": [
        {
          "address": "0x6d4b1af928cbe669659521b5dea37961b37acce9",
          "topics": [
            "0xddf252ad1be2c89b69c2b068fc378daa952ba7f163c4a11628f55a4df523b3ef",
            "0x0000000000000000000000004634c66f69145df7491bfbafb4d2e716330fa837",
            "0x00000000000000000000000015dd37d92ed9526300fe5de5ab555aea6c621f22"
          ],
          "data": "0x0000000000000000000000000000000000000000000000000de0b6b3a7640000",
          "blockHash": "0xb41524999b4fd4c83ff4dfa4ee95767aee885f04faae1a5e3d0ee9bc32c06fb8",
          "blockNumber": "0x193c35c",
          "blockTimestamp": "0x69dd4498",
          "transactionHash": "0x9569600216a740d202546f1007878f9b6b4cdd63473fe8c1dd1ecf09a05df074",
          "transactionIndex": "0x4",
          "logIndex": "0x3",
          "removed": false
        },
        {
          "address": "0x15dd37d92ed9526300fe5de5ab555aea6c621f22",
          "topics": [
            "0x8d5b2c02bddff46404253486fb75e66ca74b220e9c3ea8c1ba8bde473b055698",
            "0x0000000000000000000000000000000000000000000000000000000000000001",
            "0x0000000000000000000000004634c66f69145df7491bfbafb4d2e716330fa837",
            "0x0000000000000000000000006d4b1af928cbe669659521b5dea37961b37acce9"
          ],
          "data": "0x0000000000000000000000000000000000000000000000000de0b6b3a7640000000000000000000000000000afc441e6baf4518f38159aecbd0eed6edd08319800000000000000000000000000000000000000000000000000000000000003e80000000000000000000000000000000000000000000000000000000069dd52a80000000000000000000000000000000000000000000000000000000069dd60b8",
          "blockHash": "0xb41524999b4fd4c83ff4dfa4ee95767aee885f04faae1a5e3d0ee9bc32c06fb8",
          "blockNumber": "0x193c35c",
          "blockTimestamp": "0x69dd4498",
          "transactionHash": "0x9569600216a740d202546f1007878f9b6b4cdd63473fe8c1dd1ecf09a05df074",
          "transactionIndex": "0x4",
          "logIndex": "0x4",
          "removed": false
        }
      ],
      "logsBloom": "0x0000000000000000000000000000000000000000008000000000000000000000000000080000000000000000000002000000000000000000000000000004000100000000000000000000000800000000000000000004002000000000000002000000000020004000000000000000000000000040000000000000001000000000000000000000000000040000000000000004000000010000000000000000000000000000000000000000000000000000000000000000000000002000000000000000000200000001000000000008000000000000000000000000000000004000000000000000000000000000a000000000000000000000000000200000000000",
      "type": "0x2",
      "transactionHash": "0x9569600216a740d202546f1007878f9b6b4cdd63473fe8c1dd1ecf09a05df074",
      "transactionIndex": "0x4",
      "blockHash": "0xb41524999b4fd4c83ff4dfa4ee95767aee885f04faae1a5e3d0ee9bc32c06fb8",
      "blockNumber": "0x193c35c",
      "gasUsed": "0x34a99",
      "effectiveGasPrice": "0xfe",
      "from": "0x4634c66f69145df7491bfbafb4d2e716330fa837",
      "to": "0x15dd37d92ed9526300fe5de5ab555aea6c621f22",
      "contractAddress": null,
      "l1BaseFeeScalar": "0x2710",
      "l1BlobBaseFee": "0x1d89a",
      "l1BlobBaseFeeScalar": "0x2710",
      "l1Fee": "0x2a99d05",
      "l1GasPrice": "0x219757",
      "l1GasUsed": "0x7e6"
    }
  ],
  "libraries": [],
  "pending": [],
  "returns": {},
  "timestamp": 1776108697326,
  "chain": 133,
  "commit": "3df711e"
}