{
  "transactions": [
    {
      "hash": "0xbd0ae721b2ad31a5d217efd300a930ccd842a213e81cfec05356985e1de45065",
      "transactionType": "CALL",
      "contractName": null,
      "contractAddress": "0x6d4b1af928cbe669659521b5dea37961b37acce9",
      "function": "mint(address,uint256)",
      "arguments": [
        "0x4634c66F69145DF7491BfbAfb4D2E716330fA837",
        "1000000000000000000"
      ],
      "transaction": {
        "from": "0x4634c66f69145df7491bfbafb4d2e716330fa837",
        "to": "0x6d4b1af928cbe669659521b5dea37961b37acce9",
        "gas": "0x11475",
        "value": "0x0",
        "input": "0x40c10f190000000000000000000000004634c66f69145df7491bfbafb4d2e716330fa8370000000000000000000000000000000000000000000000000de0b6b3a7640000",
        "nonce": "0x1c",
        "chainId": "0x85"
      },
      "additionalContracts": [],
      "isFixedGasLimit": false
    },
    {
      "hash": "0x050fe2ecff36c31d2b0ac712acf676aa13034cf492736f98581ee35b324c5c3f",
      "transactionType": "CALL",
      "contractName": null,
      "contractAddress": "0xafc441e6baf4518f38159aecbd0eed6edd083198",
      "function": "mint(address,uint256)",
      "arguments": [
        "0x4634c66F69145DF7491BfbAfb4D2E716330fA837",
        "1000000000000"
      ],
      "transaction": {
        "from": "0x4634c66f69145df7491bfbafb4d2e716330fa837",
        "to": "0xafc441e6baf4518f38159aecbd0eed6edd083198",
        "gas": "0xc2e4",
        "value": "0x0",
        "input": "0x40c10f190000000000000000000000004634c66f69145df7491bfbafb4d2e716330fa837000000000000000000000000000000000000000000000000000000e8d4a51000",
        "nonce": "0x1d",
        "chainId": "0x85"
      },
      "additionalContracts": [],
      "isFixedGasLimit": false
    },
    {
      "hash": "0x598a376740c3c436ace4e6301421876f75061cbd1701bc92955954befb820fa6",
      "transactionType": "CALL",
      "contractName": null,
      "contractAddress": "0x6d4b1af928cbe669659521b5dea37961b37acce9",
      "function": "approve(address,uint256)",
      "arguments": [
        "0x15dd37d92eD9526300FE5de5aB555AeA6C621f22",
        "1000000000000000000"
      ],
      "transaction": {
        "from": "0x4634c66f69145df7491bfbafb4d2e716330fa837",
        "to": "0x6d4b1af928cbe669659521b5dea37961b37acce9",
        "gas": "0x1079e",
        "value": "0x0",
        "input": "0x095ea7b300000000000000000000000015dd37d92ed9526300fe5de5ab555aea6c621f220000000000000000000000000000000000000000000000000de0b6b3a7640000",
        "nonce": "0x1e",
        "chainId": "0x85"
      },
      "additionalContracts": [],
      "isFixedGasLimit": false
    },
    {
      "hash": "0xfe04b8396a707f5e61206855b202da91a516e55129c7c81078698d045fae43c2",
      "transactionType": "CALL",
      "contractName": null,
      "contractAddress": "0x15dd37d92ed9526300fe5de5ab555aea6c621f22",
      "function": "createAuction(address,uint256,address,uint256,uint64,uint64)",
      "arguments": [
        "0x6d4b1af928CBE669659521B5DEA37961B37ACCe9",
        "1000000000000000000",
        "0xAfc441e6baf4518f38159AecBd0Eed6EDd083198",
        "1000",
        "120",
        "60"
      ],
      "transaction": {
        "from": "0x4634c66f69145df7491bfbafb4d2e716330fa837",
        "to": "0x15dd37d92ed9526300fe5de5ab555aea6c621f22",
        "gas": "0x40cc7",
        "value": "0x0",
        "input": "0xc3487f850000000000000000000000006d4b1af928cbe669659521b5dea37961b37acce90000000000000000000000000000000000000000000000000de0b6b3a7640000000000000000000000000000afc441e6baf4518f38159aecbd0eed6edd08319800000000000000000000000000000000000000000000000000000000000003e80000000000000000000000000000000000000000000000000000000000000078000000000000000000000000000000000000000000000000000000000000003c",
        "nonce": "0x1f",
        "chainId": "0x85"
      },
      "additionalContracts": [],
      "isFixedGasLimit": false
    }
  ],
  "receipts": [
    {
      "status": "0x1",
      "cumulativeGasUsed": "0x17369",
      "logs": [
        {
          "address": "0x6d4b1af928cbe669659521b5dea37961b37acce9",
          "topics": [
            "0xddf252ad1be2c89b69c2b068fc378daa952ba7f163c4a11628f55a4df523b3ef",
            "0x0000000000000000000000000000000000000000000000000000000000000000",
            "0x0000000000000000000000004634c66f69145df7491bfbafb4d2e716330fa837"
          ],
          "data": "0x0000000000000000000000000000000000000000000000000de0b6b3a7640000",
          "blockHash": "0xce093b52e66dcdb5563073703ce33bd794e1132559ee8885462e53832b37aae4",
          "blockNumber": "0x193cf1e",
          "blockTimestamp": "0x69dd5c1c",
          "transactionHash": "0xbd0ae721b2ad31a5d217efd300a930ccd842a213e81cfec05356985e1de45065",
          "transactionIndex": "0x1",
          "logIndex": "0x0",
          "removed": false
        }
      ],
      "logsBloom": "0x0000000000000000000000000000000000000000000000000000000000000000000000000000000000000000000002000000000000000000000000000000000000000000000000000000000800000000000000000000000000000000000000000000000002000000000000000000080000000000000000000000001000000000000000000000000000040000000000000000000000010000000000000000000000000000000000000000000000000000000000000000000000000000000000000000000200000000000000000008000000000000000000000000000000002000000000000000000000000000a000000000000000000000000000000000000000",
      "type": "0x2",
      "transactionHash": "0xbd0ae721b2ad31a5d217efd300a930ccd842a213e81cfec05356985e1de45065",
      "transactionIndex": "0x1",
      "blockHash": "0xce093b52e66dcdb5563073703ce33bd794e1132559ee8885462e53832b37aae4",
      "blockNumber": "0x193cf1e",
      "gasUsed": "0xc827",
      "effectiveGasPrice": "0xfe",
      "from": "0x4634c66f69145df7491bfbafb4d2e716330fa837",
      "to": "0x6d4b1af928cbe669659521b5dea37961b37acce9",
      "contractAddress": null,
      "l1BaseFeeScalar": "0x2710",
      "l1BlobBaseFee": "0x3be17",
      "l1BlobBaseFeeScalar": "0x2710",
      "l1Fee": "0x3c33287",
      "l1GasPrice": "0x3bf747",
      "l1GasUsed": "0x640"
    },
    {
      "status": "0x1",
      "cumulativeGasUsed": "0x1f8ac",
      "logs": [
        {
          "address": "0xafc441e6baf4518f38159aecbd0eed6edd083198",
          "topics": [
            "0xddf252ad1be2c89b69c2b068fc378daa952ba7f163c4a11628f55a4df523b3ef",
            "0x0000000000000000000000000000000000000000000000000000000000000000",
            "0x0000000000000000000000004634c66f69145df7491bfbafb4d2e716330fa837"
          ],
          "data": "0x000000000000000000000000000000000000000000000000000000e8d4a51000",
          "blockHash": "0xce093b52e66dcdb5563073703ce33bd794e1132559ee8885462e53832b37aae4",
          "blockNumber": "0x193cf1e",
          "blockTimestamp": "0x69dd5c1c",
          "transactionHash": "0x050fe2ecff36c31d2b0ac712acf676aa13034cf492736f98581ee35b324c5c3f",
          "transactionIndex": "0x2",
          "logIndex": "0x1",
          "removed": false
        }
      ],
      "logsBloom": "0x00000000000000010000000000000000000000000000000000000000000000000000000000000000000000000000000000000000000000000000000000000000000000000000000000000008000000000000000000000000000000000000000000000000020000000000000000000800000000000000000000000010000000000000000000000000000400000000000000000000000100000000000000000000000000000000000000000000000000000000000000000000000000000000000000000002000000000000000000000000000000001000000000000000000020000000000000000000000000008000000000000000000000000004000000000000",
      "type": "0x2",
      "transactionHash": "0x050fe2ecff36c31d2b0ac712acf676aa13034cf492736f98581ee35b324c5c3f",
      "transactionIndex": "0x2",
      "blockHash": "0xce093b52e66dcdb5563073703ce33bd794e1132559ee8885462e53832b37aae4",
      "blockNumber": "0x193cf1e",
      "gasUsed": "0x8543",
      "effectiveGasPrice": "0xfe",
      "from": "0x4634c66f69145df7491bfbafb4d2e716330fa837",
      "to": "0xafc441e6baf4518f38159aecbd0eed6edd083198",
      "contractAddress": null,
      "l1BaseFeeScalar": "0x2710",
      "l1BlobBaseFee": "0x3be17",
      "l1BlobBaseFeeScalar": "0x2710",
      "l1Fee": "0x3c33287",
      "l1GasPrice": "0x3bf747",
      "l1GasUsed": "0x640"
    },
    {
      "status": "0x1",
      "cumulativeGasUsed": "0x2aced",
      "logs": [
        {
          "address": "0x6d4b1af928cbe669659521b5dea37961b37acce9",
          "topics": [
            "0x8c5be1e5ebec7d5bd14f71427d1e84f3dd0314c0f7b2291e5b200ac8c7c3b925",
            "0x0000000000000000000000004634c66f69145df7491bfbafb4d2e716330fa837",
            "0x00000000000000000000000015dd37d92ed9526300fe5de5ab555aea6c621f22"
          ],
          "data": "0x0000000000000000000000000000000000000000000000000de0b6b3a7640000",
          "blockHash": "0xce093b52e66dcdb5563073703ce33bd794e1132559ee8885462e53832b37aae4",
          "blockNumber": "0x193cf1e",
          "blockTimestamp": "0x69dd5c1c",
          "transactionHash": "0x598a376740c3c436ace4e6301421876f75061cbd1701bc92955954befb820fa6",
          "transactionIndex": "0x3",
          "logIndex": "0x2",
          "removed": false
        }
      ],
      "logsBloom": "0x0000000000000000000000000000000000000000000000000000000000000000000000000000000000000000000002000000000000000000000000000020000000000000000000000000000000000000000000000000000000000000000000000000000020000000000000000000000000000040000000000000000000000000000000000000000000040000000000000000000000010000000000000000000002000000000000000000000000000000000000000000000000000000000000000000000000000000000000000008000000000000000000000000000000000000001000000000000000000000a000000000000000000000000000200000000000",
      "type": "0x2",
      "transactionHash": "0x598a376740c3c436ace4e6301421876f75061cbd1701bc92955954befb820fa6",
      "transactionIndex": "0x3",
      "blockHash": "0xce093b52e66dcdb5563073703ce33bd794e1132559ee8885462e53832b37aae4",
      "blockNumber": "0x193cf1e",
      "gasUsed": "0xb441",
      "effectiveGasPrice": "0xfe",
      "from": "0x4634c66f69145df7491bfbafb4d2e716330fa837",
      "to": "0x6d4b1af928cbe669659521b5dea37961b37acce9",
      "contractAddress": null,
      "l1BaseFeeScalar": "0x2710",
      "l1BlobBaseFee": "0x3be17",
      "l1BlobBaseFeeScalar": "0x2710",
      "l1Fee": "0x3c33287",
      "l1GasPrice": "0x3bf747",
      "l1GasUsed": "0x640"
    },
    {
      "status": "0x1",
      "cumulativeGasUsed": "0x571d6",
      "logs": [
        {
          "address": "0x6d4b1af928cbe669659521b5dea37961b37acce9",
          "topics": [
            "0xddf252ad1be2c89b69c2b068fc378daa952ba7f163c4a11628f55a4df523b3ef",
            "0x0000000000000000000000004634c66f69145df7491bfbafb4d2e716330fa837",
            "0x00000000000000000000000015dd37d92ed9526300fe5de5ab555aea6c621f22"
          ],
          "data": "0x0000000000000000000000000000000000000000000000000de0b6b3a7640000",
          "blockHash": "0xce093b52e66dcdb5563073703ce33bd794e1132559ee8885462e53832b37aae4",
          "blockNumber": "0x193cf1e",
          "blockTimestamp": "0x69dd5c1c",
          "transactionHash": "0xfe04b8396a707f5e61206855b202da91a516e55129c7c81078698d045fae43c2",
          "transactionIndex": "0x4",
          "logIndex": "0x3",
          "removed": false
        },
        {
          "address": "0x15dd37d92ed9526300fe5de5ab555aea6c621f22",
          "topics": [
            "0x8d5b2c02bddff46404253486fb75e66ca74b220e9c3ea8c1ba8bde473b055698",
            "0x0000000000000000000000000000000000000000000000000000000000000005",
            "0x0000000000000000000000004634c66f69145df7491bfbafb4d2e716330fa837",
            "0x0000000000000000000000006d4b1af928cbe669659521b5dea37961b37acce9"
          ],
          "data": "0x0000000000000000000000000000000000000000000000000de0b6b3a7640000000000000000000000000000afc441e6baf4518f38159aecbd0eed6edd08319800000000000000000000000000000000000000000000000000000000000003e80000000000000000000000000000000000000000000000000000000069dd5c940000000000000000000000000000000000000000000000000000000069dd5cd0",
          "blockHash": "0xce093b52e66dcdb5563073703ce33bd794e1132559ee8885462e53832b37aae4",
          "blockNumber": "0x193cf1e",
          "blockTimestamp": "0x69dd5c1c",
          "transactionHash": "0xfe04b8396a707f5e61206855b202da91a516e55129c7c81078698d045fae43c2",
          "transactionIndex": "0x4",
          "logIndex": "0x4",
          "removed": false
        }
      ],
      "logsBloom": "0x0000000000000000000000000000000000000000008000000000000000000000000000080000000000000000000002000000000000000000000000000000000100001000000000000000000800000000000000000000002000000000000002000000000020004000000000000000000000000040000000000000001000000000000000000000000000040000000000100004080000010000000000000000000000000000000000000000000000000000000000000000000000002000000000000000000200000001000000000008000000000000000000000000000000000000000000000000000000000000a000000000000000000000000000200000000000",
      "type": "0x2",
      "transactionHash": "0xfe04b8396a707f5e61206855b202da91a516e55129c7c81078698d045fae43c2",
      "transactionIndex": "0x4",
      "blockHash": "0xce093b52e66dcdb5563073703ce33bd794e1132559ee8885462e53832b37aae4",
      "blockNumber": "0x193cf1e",
      "gasUsed": "0x2c4e9",
      "effectiveGasPrice": "0xfe",
      "from": "0x4634c66f69145df7491bfbafb4d2e716330fa837",
      "to": "0x15dd37d92ed9526300fe5de5ab555aea6c621f22",
      "contractAddress": null,
      "l1BaseFeeScalar": "0x2710",
      "l1BlobBaseFee": "0x3be17",
      "l1BlobBaseFeeScalar": "0x2710",
      "l1Fee": "0x4b13eee",
      "l1GasPrice": "0x3bf747",
      "l1GasUsed": "0x7cb"
    }
  ],
  "libraries": [],
  "pending": [],
  "returns": {},
  "timestamp": 1776114716342,
  "chain": 133,
  "commit": "53feddb"
}