{
  "transactions": [
    {
      "hash": "0xce38814fb785ed81e666c59e8a1f616429d433a5630a3e91c4d9d9f94041da70",
      "transactionType": "CALL",
      "contractName": null,
      "contractAddress": "0x6d4b1af928cbe669659521b5dea37961b37acce9",
      "function": "mint(address,uint256)",
      "arguments": [
        "0x4634c66F69145DF7491BfbAfb4D2E716330fA837",
        "1000000000000000000"
      ],
      "transaction": {
        "from": "0x4634c66f69145df7491bfbafb4d2e716330fa837",
        "to": "0x6d4b1af928cbe669659521b5dea37961b37acce9",
        "gas": "0x11475",
        "value": "0x0",
        "input": "0x40c10f190000000000000000000000004634c66f69145df7491bfbafb4d2e716330fa8370000000000000000000000000000000000000000000000000de0b6b3a7640000",
        "nonce": "0x15",
        "chainId": "0x85"
      },
      "additionalContracts": [],
      "isFixedGasLimit": false
    },
    {
      "hash": "0x714d23e8c63bac30da6f5190468b9c59d1824bb8c44e4b2e474ea3fa688fb6c0",
      "transactionType": "CALL",
      "contractName": null,
      "contractAddress": "0xafc441e6baf4518f38159aecbd0eed6edd083198",
      "function": "mint(address,uint256)",
      "arguments": [
        "0x4634c66F69145DF7491BfbAfb4D2E716330fA837",
        "1000000000000"
      ],
      "transaction": {
        "from": "0x4634c66f69145df7491bfbafb4d2e716330fa837",
        "to": "0xafc441e6baf4518f38159aecbd0eed6edd083198",
        "gas": "0xc2e4",
        "value": "0x0",
        "input": "0x40c10f190000000000000000000000004634c66f69145df7491bfbafb4d2e716330fa837000000000000000000000000000000000000000000000000000000e8d4a51000",
        "nonce": "0x16",
        "chainId": "0x85"
      },
      "additionalContracts": [],
      "isFixedGasLimit": false
    },
    {
      "hash": "0xbf08e053b3c095bf48927fbd3a4dd68667a36a468c0c0a8182bdcdaefff53c3d",
      "transactionType": "CALL",
      "contractName": null,
      "contractAddress": "0x6d4b1af928cbe669659521b5dea37961b37acce9",
      "function": "approve(address,uint256)",
      "arguments": [
        "0x15dd37d92eD9526300FE5de5aB555AeA6C621f22",
        "1000000000000000000"
      ],
      "transaction": {
        "from": "0x4634c66f69145df7491bfbafb4d2e716330fa837",
        "to": "0x6d4b1af928cbe669659521b5dea37961b37acce9",
        "gas": "0x1079e",
        "value": "0x0",
        "input": "0x095ea7b300000000000000000000000015dd37d92ed9526300fe5de5ab555aea6c621f220000000000000000000000000000000000000000000000000de0b6b3a7640000",
        "nonce": "0x17",
        "chainId": "0x85"
      },
      "additionalContracts": [],
      "isFixedGasLimit": false
    },
    {
      "hash": "0xeb4342126a0268ed2b5a791020e622832035fee0436b4517328c8e19e56e5bd0",
      "transactionType": "CALL",
      "contractName": null,
      "contractAddress": "0x15dd37d92ed9526300fe5de5ab555aea6c621f22",
      "function": "createAuction(address,uint256,address,uint256,uint64,uint64)",
      "arguments": [
        "0x6d4b1af928CBE669659521B5DEA37961B37ACCe9",
        "1000000000000000000",
        "0xAfc441e6baf4518f38159AecBd0Eed6EDd083198",
        "1000",
        "300",
        "7200"
      ],
      "transaction": {
        "from": "0x4634c66f69145df7491bfbafb4d2e716330fa837",
        "to": "0x15dd37d92ed9526300fe5de5ab555aea6c621f22",
        "gas": "0x40cea",
        "value": "0x0",
        "input": "0xc3487f850000000000000000000000006d4b1af928cbe669659521b5dea37961b37acce90000000000000000000000000000000000000000000000000de0b6b3a7640000000000000000000000000000afc441e6baf4518f38159aecbd0eed6edd08319800000000000000000000000000000000000000000000000000000000000003e8000000000000000000000000000000000000000000000000000000000000012c0000000000000000000000000000000000000000000000000000000000001c20",
        "nonce": "0x18",
        "chainId": "0x85"
      },
      "additionalContracts": [],
      "isFixedGasLimit": false
    }
  ],
  "receipts": [
    {
      "status": "0x1",
      "cumulativeGasUsed": "0x19f29",
      "logs": [
        {
          "address": "0x6d4b1af928cbe669659521b5dea37961b37acce9",
          "topics": [
            "0xddf252ad1be2c89b69c2b068fc378daa952ba7f163c4a11628f55a4df523b3ef",
            "0x0000000000000000000000000000000000000000000000000000000000000000",
            "0x0000000000000000000000004634c66f69145df7491bfbafb4d2e716330fa837"
          ],
          "data": "0x0000000000000000000000000000000000000000000000000de0b6b3a7640000",
          "blockHash": "0xf81a62ef4b32b4ab4f35ab70eadddc3b9275ae136212735e05358a51a7645d1d",
          "blockNumber": "0x193cd41",
          "blockTimestamp": "0x69dd5862",
          "transactionHash": "0xbf08e053b3c095bf48927fbd3a4dd68667a36a468c0c0a8182bdcdaefff53c3d",
          "transactionIndex": "0x1",
          "logIndex": "0x0",
          "removed": false
        }
      ],
      "logsBloom": "0x0000000000000000000000000000000000000000000000000000000000000000000000000000000000000000000002000000000000000000000000000000000000000000000000000000000800000000000000000000000000000000000000000000000002000000000000000000080000000000000000000000001000000000000000000000000000040000000000000000000000010000000000000000000000000000000000000000000000000000000000000000000000000000000000000000000200000000000000000008000000000000000000000000000000002000000000000000000000000000a000000000000000000000000000000000000000",
      "type": "0x2",
      "transactionHash": "0xbf08e053b3c095bf48927fbd3a4dd68667a36a468c0c0a8182bdcdaefff53c3d",
      "transactionIndex": "0x1",
      "blockHash": "0xf81a62ef4b32b4ab4f35ab70eadddc3b9275ae136212735e05358a51a7645d1d",
      "blockNumber": "0x193cd41",
      "gasUsed": "0xc827",
      "effectiveGasPrice": "0xfe",
      "from": "0x4634c66f69145df7491bfbafb4d2e716330fa837",
      "to": "0x6d4b1af928cbe669659521b5dea37961b37acce9",
      "contractAddress": null,
      "l1BaseFeeScalar": "0x2710",
      "l1BlobBaseFee": "0x1fd4b",
      "l1BlobBaseFeeScalar": "0x2710",
      "l1Fee": "0x201e93b",
      "l1GasPrice": "0x1ffebf",
      "l1GasUsed": "0x640"
    },
    {
      "status": "0x1",
      "cumulativeGasUsed": "0x2246c",
      "logs": [
        {
          "address": "0xafc441e6baf4518f38159aecbd0eed6edd083198",
          "topics": [
            "0xddf252ad1be2c89b69c2b068fc378daa952ba7f163c4a11628f55a4df523b3ef",
            "0x0000000000000000000000000000000000000000000000000000000000000000",
            "0x0000000000000000000000004634c66f69145df7491bfbafb4d2e716330fa837"
          ],
          "data": "0x000000000000000000000000000000000000000000000000000000e8d4a51000",
          "blockHash": "0xf81a62ef4b32b4ab4f35ab70eadddc3b9275ae136212735e05358a51a7645d1d",
          "blockNumber": "0x193cd41",
          "blockTimestamp": "0x69dd5862",
          "transactionHash": "0x714d23e8c63bac30da6f5190468b9c59d1824bb8c44e4b2e474ea3fa688fb6c0",
          "transactionIndex": "0x2",
          "logIndex": "0x1",
          "removed": false
        }
      ],
      "logsBloom": "0x00000000000000010000000000000000000000000000000000000000000000000000000000000000000000000000000000000000000000000000000000000000000000000000000000000008000000000000000000000000000000000000000000000000020000000000000000000800000000000000000000000010000000000000000000000000000400000000000000000000000100000000000000000000000000000000000000000000000000000000000000000000000000000000000000000002000000000000000000000000000000001000000000000000000020000000000000000000000000008000000000000000000000000004000000000000",
      "type": "0x2",
      "transactionHash": "0x714d23e8c63bac30da6f5190468b9c59d1824bb8c44e4b2e474ea3fa688fb6c0",
      "transactionIndex": "0x2",
      "blockHash": "0xf81a62ef4b32b4ab4f35ab70eadddc3b9275ae136212735e05358a51a7645d1d",
      "blockNumber": "0x193cd41",
      "gasUsed": "0x8543",
      "effectiveGasPrice": "0xfe",
      "from": "0x4634c66f69145df7491bfbafb4d2e716330fa837",
      "to": "0xafc441e6baf4518f38159aecbd0eed6edd083198",
      "contractAddress": null,
      "l1BaseFeeScalar": "0x2710",
      "l1BlobBaseFee": "0x1fd4b",
      "l1BlobBaseFeeScalar": "0x2710",
      "l1Fee": "0x201e93b",
      "l1GasPrice": "0x1ffebf",
      "l1GasUsed": "0x640"
    },
    {
      "status": "0x1",
      "cumulativeGasUsed": "0x2d8ad",
      "logs": [
        {
          "address": "0x6d4b1af928cbe669659521b5dea37961b37acce9",
          "topics": [
            "0x8c5be1e5ebec7d5bd14f71427d1e84f3dd0314c0f7b2291e5b200ac8c7c3b925",
            "0x0000000000000000000000004634c66f69145df7491bfbafb4d2e716330fa837",
            "0x00000000000000000000000015dd37d92ed9526300fe5de5ab555aea6c621f22"
          ],
          "data": "0x0000000000000000000000000000000000000000000000000de0b6b3a7640000",
          "blockHash": "0xf81a62ef4b32b4ab4f35ab70eadddc3b9275ae136212735e05358a51a7645d1d",
          "blockNumber": "0x193cd41",
          "blockTimestamp": "0x69dd5862",
          "transactionHash": "0xce38814fb785ed81e666c59e8a1f616429d433a5630a3e91c4d9d9f94041da70",
          "transactionIndex": "0x3",
          "logIndex": "0x2",
          "removed": false
        }
      ],
      "logsBloom": "0x0000000000000000000000000000000000000000000000000000000000000000000000000000000000000000000002000000000000000000000000000020000000000000000000000000000000000000000000000000000000000000000000000000000020000000000000000000000000000040000000000000000000000000000000000000000000040000000000000000000000010000000000000000000002000000000000000000000000000000000000000000000000000000000000000000000000000000000000000008000000000000000000000000000000000000001000000000000000000000a000000000000000000000000000200000000000",
      "type": "0x2",
      "transactionHash": "0xce38814fb785ed81e666c59e8a1f616429d433a5630a3e91c4d9d9f94041da70",
      "transactionIndex": "0x3",
      "blockHash": "0xf81a62ef4b32b4ab4f35ab70eadddc3b9275ae136212735e05358a51a7645d1d",
      "blockNumber": "0x193cd41",
      "gasUsed": "0xb441",
      "effectiveGasPrice": "0xfe",
      "from": "0x4634c66f69145df7491bfbafb4d2e716330fa837",
      "to": "0x6d4b1af928cbe669659521b5dea37961b37acce9",
      "contractAddress": null,
      "l1BaseFeeScalar": "0x2710",
      "l1BlobBaseFee": "0x1fd4b",
      "l1BlobBaseFeeScalar": "0x2710",
      "l1Fee": "0x201e93b",
      "l1GasPrice": "0x1ffebf",
      "l1GasUsed": "0x640"
    },
    {
      "status": "0x1",
      "cumulativeGasUsed": "0x59dae",
      "logs": [
        {
          "address": "0x6d4b1af928cbe669659521b5dea37961b37acce9",
          "topics": [
            "0xddf252ad1be2c89b69c2b068fc378daa952ba7f163c4a11628f55a4df523b3ef",
            "0x0000000000000000000000004634c66f69145df7491bfbafb4d2e716330fa837",
            "0x00000000000000000000000015dd37d92ed9526300fe5de5ab555aea6c621f22"
          ],
          "data": "0x0000000000000000000000000000000000000000000000000de0b6b3a7640000",
          "blockHash": "0xf81a62ef4b32b4ab4f35ab70eadddc3b9275ae136212735e05358a51a7645d1d",
          "blockNumber": "0x193cd41",
          "blockTimestamp": "0x69dd5862",
          "transactionHash": "0xeb4342126a0268ed2b5a791020e622832035fee0436b4517328c8e19e56e5bd0",
          "transactionIndex": "0x4",
          "logIndex": "0x3",
          "removed": false
        },
        {
          "address": "0x15dd37d92ed9526300fe5de5ab555aea6c621f22",
          "topics": [
            "0x8d5b2c02bddff46404253486fb75e66ca74b220e9c3ea8c1ba8bde473b055698",
            "0x0000000000000000000000000000000000000000000000000000000000000004",
            "0x0000000000000000000000004634c66f69145df7491bfbafb4d2e716330fa837",
            "0x0000000000000000000000006d4b1af928cbe669659521b5dea37961b37acce9"
          ],
          "data": "0x0000000000000000000000000000000000000000000000000de0b6b3a7640000000000000000000000000000afc441e6baf4518f38159aecbd0eed6edd08319800000000000000000000000000000000000000000000000000000000000003e80000000000000000000000000000000000000000000000000000000069dd598e0000000000000000000000000000000000000000000000000000000069dd75ae",
          "blockHash": "0xf81a62ef4b32b4ab4f35ab70eadddc3b9275ae136212735e05358a51a7645d1d",
          "blockNumber": "0x193cd41",
          "blockTimestamp": "0x69dd5862",
          "transactionHash": "0xeb4342126a0268ed2b5a791020e622832035fee0436b4517328c8e19e56e5bd0",
          "transactionIndex": "0x4",
          "logIndex": "0x4",
          "removed": false
        }
      ],
      "logsBloom": "0x0000000000000000000000000000000000000000008000000000000000000000000000080000000000000000000002000000000000000000000000000000000100000000000000000000000800000000000000000000002000000000000002000800000020004000000000000000000000000040000000000000001000000000000000000000000000040000000000000004000000010000000000000000000000000000000000000000000000000000000000000000000000202000000000000000000200000001000000000008000000000000800000000000000000000000000000000000000000000000a000000000000000000000000000200000000000",
      "type": "0x2",
      "transactionHash": "0xeb4342126a0268ed2b5a791020e622832035fee0436b4517328c8e19e56e5bd0",
      "transactionIndex": "0x4",
      "blockHash": "0xf81a62ef4b32b4ab4f35ab70eadddc3b9275ae136212735e05358a51a7645d1d",
      "blockNumber": "0x193cd41",
      "gasUsed": "0x2c501",
      "effectiveGasPrice": "0xfe",
      "from": "0x4634c66f69145df7491bfbafb4d2e716330fa837",
      "to": "0x15dd37d92ed9526300fe5de5ab555aea6c621f22",
      "contractAddress": null,
      "l1BaseFeeScalar": "0x2710",
      "l1BlobBaseFee": "0x1fd4b",
      "l1BlobBaseFeeScalar": "0x2710",
      "l1Fee": "0x28984d1",
      "l1GasPrice": "0x1ffebf",
      "l1GasUsed": "0x7e6"
    }
  ],
  "libraries": [],
  "pending": [],
  "returns": {},
  "timestamp": 1776113762768,
  "chain": 133,
  "commit": "1b3ba23"
}